{
  "abi": [
    {
      "inputs": [
        {
          "internalType": "uint256",
          "name": "maxPlayers_",
          "type": "uint256"
        },
        {
          "internalType": "uint256",
          "name": "minPlayers_",
          "type": "uint256"
        },
        {
          "internalType": "uint256",
          "name": "voteCallCooldown_",
          "type": "uint256"
        },
        {
          "internalType": "bool",
          "name": "testing_",
          "type": "bool"
        }
      ],
      "stateMutability": "nonpayable",
      "type": "constructor"
    },
    {
      "inputs": [],
      "name": "callVote",
      "outputs": [],
      "stateMutability": "nonpayable",
      "type": "function"
    },
    {
      "inputs": [
        {
          "internalType": "uint256",
          "name": "action",
          "type": "uint256"
        },
        {
          "internalType": "address",
          "name": "target",
          "type": "address"
        },
        {
          "internalType": "uint256",
          "name": "taskId",
          "type": "uint256"
        }
      ],
      "name": "doAction",
      "outputs": [],
      "stateMutability": "nonpayable",
      "type": "function"
    },
    {
      "inputs": [],
      "name": "gameOutcome",
      "outputs": [
        {
          "internalType": "enum Enums.GameOutcomes",
          "name": "",
          "type": "uint8"
        }
      ],
      "stateMutability": "view",
      "type": "function"
    },
    {
      "inputs": [],
      "name": "gameState",
      "outputs": [
        {
          "internalType": "enum Enums.GameStates",
          "name": "",
          "type": "uint8"
        }
      ],
      "stateMutability": "view",
      "type": "function"
    },
    {
      "inputs": [],
      "name": "getImposterCount",
      "outputs": [
        {
          "internalType": "uint256",
          "name": "count",
          "type": "uint256"
        }
      ],
      "stateMutability": "view",
      "type": "function"
    },
    {
      "inputs": [],
      "name": "getPlayerCount",
      "outputs": [
        {
          "internalType": "uint256",
          "name": "count",
          "type": "uint256"
        }
      ],
      "stateMutability": "view",
      "type": "function"
    },
    {
      "inputs": [],
      "name": "getRealOnesCount",
      "outputs": [
        {
          "internalType": "uint256",
          "name": "count",
          "type": "uint256"
        }
      ],
      "stateMutability": "view",
      "type": "function"
    },
    {
      "inputs": [],
      "name": "join",
      "outputs": [],
      "stateMutability": "nonpayable",
      "type": "function"
    },
    {
      "inputs": [],
      "name": "lastVoteCallTimestamp",
      "outputs": [
        {
          "internalType": "uint256",
          "name": "",
          "type": "uint256"
        }
      ],
      "stateMutability": "view",
      "type": "function"
    },
    {
      "inputs": [],
      "name": "leave",
      "outputs": [],
      "stateMutability": "nonpayable",
      "type": "function"
    },
    {
      "inputs": [],
      "name": "numAlivePlayers",
      "outputs": [
        {
          "internalType": "uint256",
          "name": "",
          "type": "uint256"
        }
      ],
      "stateMutability": "view",
      "type": "function"
    },
    {
      "inputs": [],
      "name": "numVotes",
      "outputs": [
        {
          "internalType": "uint256",
          "name": "",
          "type": "uint256"
        }
      ],
      "stateMutability": "view",
      "type": "function"
    },
    {
      "inputs": [
        {
          "internalType": "address",
          "name": "",
          "type": "address"
        }
      ],
      "name": "players",
      "outputs": [
        {
          "internalType": "bool",
          "name": "joined",
          "type": "bool"
        },
        {
          "internalType": "bool",
          "name": "alive",
          "type": "bool"
        },
        {
          "internalType": "int256",
          "name": "playerAddrIndex",
          "type": "int256"
        }
      ],
      "stateMutability": "view",
      "type": "function"
    },
    {
      "inputs": [
        {
          "internalType": "string",
          "name": "salt",
          "type": "string"
        }
      ],
      "name": "start",
      "outputs": [],
      "stateMutability": "nonpayable",
      "type": "function"
    },
    {
      "inputs": [
        {
          "internalType": "uint256",
          "name": "",
          "type": "uint256"
        }
      ],
      "name": "tasks",
      "outputs": [
        {
          "internalType": "uint256",
          "name": "",
          "type": "uint256"
        }
      ],
      "stateMutability": "view",
      "type": "function"
    },
    {
      "inputs": [],
      "name": "tasksCompleted",
      "outputs": [
        {
          "internalType": "uint256",
          "name": "",
          "type": "uint256"
        }
      ],
      "stateMutability": "view",
      "type": "function"
    },
    {
      "inputs": [
        {
          "internalType": "address",
          "name": "target",
          "type": "address"
        }
      ],
      "name": "vote",
      "outputs": [],
      "stateMutability": "nonpayable",
      "type": "function"
    },
    {
      "inputs": [],
      "name": "voteRound",
      "outputs": [
        {
          "internalType": "uint256",
          "name": "",
          "type": "uint256"
        }
      ],
      "stateMutability": "view",
      "type": "function"
    },
    {
      "inputs": [
        {
          "internalType": "uint256",
          "name": "",
          "type": "uint256"
        },
        {
          "internalType": "address",
          "name": "",
          "type": "address"
        }
      ],
      "name": "voted",
      "outputs": [
        {
          "internalType": "bool",
          "name": "",
          "type": "bool"
        }
      ],
      "stateMutability": "view",
      "type": "function"
    },
    {
      "inputs": [
        {
          "internalType": "uint256",
          "name": "",
          "type": "uint256"
        },
        {
          "internalType": "address",
          "name": "",
          "type": "address"
        }
      ],
      "name": "votes",
      "outputs": [
        {
          "internalType": "uint256",
          "name": "",
          "type": "uint256"
        }
      ],
      "stateMutability": "view",
      "type": "function"
    }
  ],
  "bytecode": {
    "object": "0x610120604052600560e05260006001819055600281905560038190556004556008805461ffff191690553480156200003657600080fd5b5060405162002261380380620022618339810160408190526200005991620001e8565b60038311620000af5760405162461bcd60e51b815260206004820152601a60248201527f4e656564206174206c6561737420666f757220706c617965727300000000000060448201526064015b60405180910390fd5b838311156200010f5760405162461bcd60e51b815260206004820152602560248201527f4d696e696d756d20706c6179657273206d757374206265206c657373207468616044820152640dc40dac2f60db1b6064820152608401620000a6565b60809390935260a09190915260c0521515610100526009602052600a7f92e85d02570a8092d09a6e3a57665bc3815a2699a4074001bf1ccabf660f5a365560147f6cde3cea4b3a3fb2488b2808bae7556f4a405e50f65e1794383bc026131b13c355601e7fc575c31fea594a6eb97c8e9d3f9caee4c16218c6ef37e923234c0fe9014a61e75560287f8dc18c4ccfd75f5c815b63770fa542fd953e8fef7e0e44bbdd4913470ce7e9cb55600560005260327f74b05292d1d4b2b48b65261b07099d24244bcb069f138d9a6bfdcf776becac4c5562000230565b60008060008060808587031215620001ff57600080fd5b845193506020850151925060408501519150606085015180151581146200022557600080fd5b939692955090935050565b60805160a05160c05160e05161010051611fec620002756000396000610e02015260006117d6015260006103cd015260006105b501526000610adf0152611fec6000f3fe608060405234801561001057600080fd5b506004361061012c5760003560e01c8063a3bef4d7116100ad578063d23254b411610071578063d23254b41461025a578063d66d9e1914610285578063dc5cda6b1461028d578063e2eb41ff14610295578063e3646b72146102e657600080fd5b8063a3bef4d71461021e578063b688a36314610227578063c18f18b91461022f578063c2e5220614610238578063d1f9c24d1461024057600080fd5b80635277b4ae116100f45780635277b4ae1461019157806354e52485146101cf5780636dd7d8ea146101e25780638d977672146101f55780639aeb55871461021557600080fd5b8063053a2cfb1461013157806308275a60146101595780631ad7c1991461016b578063258e60b61461017557806337e0b49114610188575b600080fd5b60085461014390610100900460ff1681565b6040516101509190611a5d565b60405180910390f35b600c545b604051908152602001610150565b6101736102ef565b005b610173610183366004611abe565b6104dd565b61015d60045481565b6101bf61019f366004611b68565b600760209081526000928352604080842090915290825290205460ff1681565b6040519015158152602001610150565b6101736101dd366004611b98565b610643565b6101736101f0366004611bd0565b61079e565b61015d610203366004611bf4565b60096020526000908152604090205481565b61015d60015481565b61015d60025481565b610173610a15565b61015d60005481565b600a5461015d565b60085461024d9060ff1681565b6040516101509190611c0d565b61015d610268366004611b68565b600660209081526000928352604080842090915290825290205481565b610173610bda565b600b5461015d565b6102c96102a3366004611bd0565b6005602052600090815260409020805460019091015460ff808316926101009004169083565b604080519315158452911515602084015290820152606001610150565b61015d60035481565b3360008181526005602052604090205460ff16151560011461032c5760405162461bcd60e51b815260040161032390611c21565b60405180910390fd5b3360008181526005602052604090205460ff6101009091041615156001146103665760405162461bcd60e51b815260040161032390611c58565b6001604051806060016040528060238152602001611f6b6023913981600381111561039357610393611a47565b60085460ff1660038111156103aa576103aa611a47565b1481906103ca5760405162461bcd60e51b81526004016103239190611ccb565b507f0000000000000000000000000000000000000000000000000000000000000000600054426103fa9190611cf4565b10156104535760405162461bcd60e51b815260206004820152602260248201527f43616c6c20766f746520636f6f6c646f776e207374696c6c20696e206566666560448201526118dd60f21b6064820152608401610323565b336000908152600d6020526040902054156104b05760405162461bcd60e51b815260206004820152601e60248201527f596f75206172652063757272656e746c7920646f696e672061207461736b00006044820152606401610323565b6104ba6003610c87565b600380549060006104ca83611d0d565b91905055506104d7610d8c565b50505050565b3360008181526005602052604090205460ff1615156001146105115760405162461bcd60e51b815260040161032390611c21565b600060085460ff16600381111561052a5761052a611a47565b148061054c5750600360085460ff16600381111561054a5761054a611a47565b145b6105b05760405162461bcd60e51b815260206004820152602f60248201527f43757272656e742067616d6520737461746520646f6573206e6f7420616c6c6f60448201526e77207374617274696e672067616d6560881b6064820152608401610323565b600a547f000000000000000000000000000000000000000000000000000000000000000011156106225760405162461bcd60e51b815260206004820181905260248201527f4e6f7420656e6f75676820706c617965727320746f2073746172742067616d656044820152606401610323565b600a5460015561063182610dec565b4260005561063f6001610c87565b5050565b3360008181526005602052604090205460ff1615156001146106775760405162461bcd60e51b815260040161032390611c21565b6001604051806060016040528060298152602001611f1a602991398160038111156106a4576106a4611a47565b60085460ff1660038111156106bb576106bb611a47565b1481906106db5760405162461bcd60e51b81526004016103239190611ccb565b5060008660018111156106f0576106f0611a47565b600181111561070157610701611a47565b148015610714575061071233610fb2565b155b1561076357336000908152600d6020526040812054900361073d576107388461101b565b610796565b8360000361075a57610738336000908152600d6020526040812055565b610738846110f4565b600186600181111561077757610777611a47565b600181111561078857610788611a47565b03610796576107968561120e565b505050505050565b3360008181526005602052604090205460ff1615156001146107d25760405162461bcd60e51b815260040161032390611c21565b3360008181526005602052604090205460ff61010090910416151560011461080c5760405162461bcd60e51b815260040161032390611c58565b6001600160a01b038316600090815260056020526040902054839060ff16151560011461084b5760405162461bcd60e51b815260040161032390611c21565b6001600160a01b038416600090815260056020526040902054849060ff6101009091041615156001146108905760405162461bcd60e51b815260040161032390611c58565b6003604051806060016040528060288152602001611f43602891398160038111156108bd576108bd611a47565b60085460ff1660038111156108d4576108d4611a47565b1481906108f45760405162461bcd60e51b81526004016103239190611ccb565b50600354600090815260076020908152604080832033845290915290205460ff16156109565760405162461bcd60e51b8152602060048201526011602482015270165bdd48185b1c9958591e481d9bdd1959607a1b6044820152606401610323565b60035460009081526006602090815260408083206001600160a01b038b168452909152812080549161098783611d0d565b90915550506002805490600061099c83611d0d565b909155505060035460009081526006602090815260408083206001600160a01b038b1684529091529020546109d290889061137a565b600154600254036109e5576109e561158c565b505060035460009081526007602090815260408083203384529091529020805460ff191660011790555050505050565b6000604051806060016040528060298152602001611f8e60299139816003811115610a4257610a42611a47565b60085460ff166003811115610a5957610a59611a47565b148190610a795760405162461bcd60e51b81526004016103239190611ccb565b503360009081526005602052604090205460ff1615610ada5760405162461bcd60e51b815260206004820152601760248201527f596f75206861766520616c7265616479206a6f696e65640000000000000000006044820152606401610323565b600a547f000000000000000000000000000000000000000000000000000000000000000011610b3a5760405162461bcd60e51b815260206004820152600c60248201526b11d85b59481a5cc8199d5b1b60a21b6044820152606401610323565b50506040805160608101825260018082526020808301828152600a8054858701908152336000818152600590955296842095518654935161ffff1990941690151561ff001916176101009315159390930292909217855590519383019390935582549182018355919091527fc65a7bb8d6351c1cf70c95a316cc6a92839c986682d98bc35f958f4883f9d2a80180546001600160a01b0319169091179055565b3360008181526005602052604090205460ff161515600114610c0e5760405162461bcd60e51b815260040161032390611c21565b33600090815260056020526040902060010154610c2a90611633565b50604080516060810182526000808252602080830182815260001984860190815233845260059092529390912091518254935161ffff1990941690151561ff00191617610100931515939093029290921781559051600190910155565b600260085460ff166003811115610ca057610ca0611a47565b03610ce65760405162461bcd60e51b815260206004820152601660248201527511d85b59481a185cc8185b1c9958591e48195b99195960521b6044820152606401610323565b6000816003811115610cfa57610cfa611a47565b03610d6557600160085460ff166003811115610d1857610d18611a47565b03610d655760405162461bcd60e51b815260206004820152601860248201527f47616d652068617320616c7265616479207374617274656400000000000000006044820152606401610323565b6008805482919060ff19166001836003811115610d8457610d84611a47565b021790555050565b60005b600c54811015610de9576000600d6000600c8481548110610db257610db2611d26565b60009182526020808320909101546001600160a01b0316835282019290925260400190205580610de181611d0d565b915050610d8f565b50565b600a54600090610dfe90600490611d3c565b90507f00000000000000000000000000000000000000000000000000000000000000001515600003610ede5760405163ab4100d960e01b815273__$a618546ae8d00031034a01e79099774447$__9063ab4100d990610e66908490600a908790600401611d5e565b600060405180830381865af4158015610e83573d6000803e3d6000fd5b505050506040513d6000823e601f3d908101601f19168201604052610eab9190810190611e56565b8051600b90600090610ec490600c906020860190611986565b50508251610ed791906020850190611986565b5050505050565b60005b600a54811015610fad57600b54821115610f4a57600b600a8281548110610f0a57610f0a611d26565b60009182526020808320909101548354600181018555938352912090910180546001600160a01b0319166001600160a01b03909216919091179055610f9b565b600c600a8281548110610f5f57610f5f611d26565b60009182526020808320909101548354600181018555938352912090910180546001600160a01b0319166001600160a01b039092169190911790555b80610fa581611d0d565b915050610ee1565b505050565b6000805b600b5481101561101257826001600160a01b0316600b8281548110610fdd57610fdd611d26565b6000918252602090912001546001600160a01b0316036110005750600192915050565b8061100a81611d0d565b915050610fb6565b50600092915050565b336000908152600d6020908152604091829020548251808401909352600f83526e1058dd1a5bdb881c995a9958dd1959608a1b91830191909152156110735760405162461bcd60e51b81526004016103239190611ccb565b5061107d8161171d565b60408051808201909152600f81526e1058dd1a5bdb881c995a9958dd1959608a1b602082015290156110c25760405162461bcd60e51b81526004016103239190611ccb565b50604080518082018252918252426020808401918252336000908152600d909152919091209151825551600190910155565b336000908152600d6020908152604091829020548251808401909352600f83526e1058dd1a5bdb881c995a9958dd1959608a1b91830191909152821461114d5760405162461bcd60e51b81526004016103239190611ccb565b50600081815260096020908152604080832054338452600d909252909120600101546111799042611cf4565b10156040518060400160405280600f81526020016e1058dd1a5bdb881c995a9958dd1959608a1b815250906111c15760405162461bcd60e51b81526004016103239190611ccb565b50600480549060006111d283611d0d565b9091555050336000818152600e60209081526040808320805460018101825590845282842001859055928252600d90529081205561063f6117ca565b33600090815260056020908152604091829020548251808401909352600f83526e1058dd1a5bdb881c995a9958dd1959608a1b9183019190915260ff6101009091041615156001146112735760405162461bcd60e51b81526004016103239190611ccb565b506001600160a01b038116600090815260056020908152604091829020548251808401909352600f83526e1058dd1a5bdb881c995a9958dd1959608a1b9183019190915260ff6101009091041615156001146112e25760405162461bcd60e51b81526004016103239190611ccb565b506112ec33610fb2565b6040518060400160405280600f81526020016e1058dd1a5bdb881c995a9958dd1959608a1b815250906113325760405162461bcd60e51b81526004016103239190611ccb565b506001600160a01b0381166000908152600560205260409020805461ff001916905560015415611372576001805490600061136c83611eba565b91905055505b61063f611827565b600f54156114f7576000600f60008154811061139857611398611d26565b906000526020600020906002020160010154905080821115611458576113c0600f60006119eb565b604080518082019091526001600160a01b03848116825260208201848152600f805460018101825560009190915292517f8d1108e10bcb7c27dddfc02ed9d693a074039d026cf4ea4240b40f7d581ac802600290940293840180546001600160a01b0319169190931617909155517f8d1108e10bcb7c27dddfc02ed9d693a074039d026cf4ea4240b40f7d581ac80390910155505050565b808203610fad57604080518082019091526001600160a01b03848116825260208201848152600f805460018101825560009190915292517f8d1108e10bcb7c27dddfc02ed9d693a074039d026cf4ea4240b40f7d581ac802600290940293840180546001600160a01b0319169190931617909155517f8d1108e10bcb7c27dddfc02ed9d693a074039d026cf4ea4240b40f7d581ac80390910155505050565b604080518082019091526001600160a01b03928316815260208101918252600f805460018101825560009190915290517f8d1108e10bcb7c27dddfc02ed9d693a074039d026cf4ea4240b40f7d581ac802600290920291820180546001600160a01b0319169190941617909255517f8d1108e10bcb7c27dddfc02ed9d693a074039d026cf4ea4240b40f7d581ac80390910155565b600f5460010361160457600060056000600f6000815481106115b0576115b0611d26565b600091825260208083206002909202909101546001600160a01b03168352820192909252604001812080549215156101000261ff00199093169290921790915560018054916115fe83611eba565b91905055505b61160c611973565b6000611616611827565b9050801515600003610de95761162c6001610c87565b4260005550565b600a5461164290600190611cf4565b8110156116e757805b600a5461165a90600190611cf4565b8110156116e557600a61166e826001611ed1565b8154811061167e5761167e611d26565b600091825260209091200154600a80546001600160a01b0390921691839081106116aa576116aa611d26565b600091825260209091200180546001600160a01b0319166001600160a01b0392909216919091179055806116dd81611d0d565b91505061164b565b505b600a8054806116f8576116f8611ee4565b600082815260209020810160001990810180546001600160a01b031916905501905550565b336000908152600e602090815260408083208054825181850281018501909352808352849383018282801561177157602002820191906000526020600020905b81548152602001906001019080831161175d575b5050505050905060005b81518110156117c0578382828151811061179757611797611d26565b6020026020010151036117ae575060019392505050565b806117b881611d0d565b91505061177b565b5060009392505050565b600c546000906117fa907f0000000000000000000000000000000000000000000000000000000000000000611efa565b600454106118215761180c6002610c87565b506008805461ff001916610200179055600190565b50600090565b600080805b600b548110156118a05760056000600b838154811061184d5761184d611d26565b60009182526020808320909101546001600160a01b0316835282019290925260400190205460ff610100909104161561188e578161188a81611d0d565b9250505b8061189881611d0d565b91505061182c565b50600081116118c9576118b36002610c87565b50506008805461ff001916610200179055600190565b6000805b600c548110156119415760056000600c83815481106118ee576118ee611d26565b60009182526020808320909101546001600160a01b0316835282019290925260400190205460ff610100909104161561192f578161192b81611d0d565b9250505b8061193981611d0d565b9150506118cd565b5081811161196a576119536002610c87565b50506008805461ff00191661010017905550600190565b60009250505090565b61197f600f60006119eb565b6000600255565b8280548282559060005260206000209081019282156119db579160200282015b828111156119db57825182546001600160a01b0319166001600160a01b039091161782556020909201916001909101906119a6565b506119e7929150611a0c565b5090565b5080546000825560020290600052602060002090810190610de99190611a21565b5b808211156119e75760008155600101611a0d565b5b808211156119e75780546001600160a01b031916815560006001820155600201611a22565b634e487b7160e01b600052602160045260246000fd5b6020810160038310611a7157611a71611a47565b91905290565b634e487b7160e01b600052604160045260246000fd5b604051601f8201601f1916810167ffffffffffffffff81118282101715611ab657611ab6611a77565b604052919050565b60006020808385031215611ad157600080fd5b823567ffffffffffffffff80821115611ae957600080fd5b818501915085601f830112611afd57600080fd5b813581811115611b0f57611b0f611a77565b611b21601f8201601f19168501611a8d565b91508082528684828501011115611b3757600080fd5b8084840185840137600090820190930192909252509392505050565b6001600160a01b0381168114610de957600080fd5b60008060408385031215611b7b57600080fd5b823591506020830135611b8d81611b53565b809150509250929050565b600080600060608486031215611bad57600080fd5b833592506020840135611bbf81611b53565b929592945050506040919091013590565b600060208284031215611be257600080fd5b8135611bed81611b53565b9392505050565b600060208284031215611c0657600080fd5b5035919050565b6020810160048310611a7157611a71611a47565b6020808252601d908201527f506c6179657220646964206e6f74206a6f696e20746869732067616d65000000604082015260600190565b602080825260139082015272506c61796572206973206e6f7420616c69766560681b604082015260600190565b6000815180845260005b81811015611cab57602081850181015186830182015201611c8f565b506000602082860101526020601f19601f83011685010191505092915050565b602081526000611bed6020830184611c85565b634e487b7160e01b600052601160045260246000fd5b81810381811115611d0757611d07611cde565b92915050565b600060018201611d1f57611d1f611cde565b5060010190565b634e487b7160e01b600052603260045260246000fd5b600082611d5957634e487b7160e01b600052601260045260246000fd5b500490565b60006060820185835260206060818501528186548084526080860191508760005282600020935060005b81811015611dad5784546001600160a01b031683526001948501949284019201611d88565b50508481036040860152611dc18187611c85565b98975050505050505050565b600082601f830112611dde57600080fd5b8151602067ffffffffffffffff821115611dfa57611dfa611a77565b8160051b611e09828201611a8d565b9283528481018201928281019087851115611e2357600080fd5b83870192505b84831015611e4b578251611e3c81611b53565b82529183019190830190611e29565b979650505050505050565b60008060408385031215611e6957600080fd5b825167ffffffffffffffff80821115611e8157600080fd5b611e8d86838701611dcd565b93506020850151915080821115611ea357600080fd5b50611eb085828601611dcd565b9150509250929050565b600081611ec957611ec9611cde565b506000190190565b80820180821115611d0757611d07611cde565b634e487b7160e01b600052603160045260246000fd5b6000816000190483118215151615611f1457611f14611cde565b50029056fe43757272656e742067616d6520737461746520646f6573206e6f7420616c6c6f7720616374696f6e7343757272656e742067616d6520737461746520646f6573206e6f7420616c6c6f7720766f74696e6747616d65206d757374206265207374617274656420746f2063616c6c206120766f746543757272656e742067616d6520737461746520646f6573206e6f7420616c6c6f77206a6f696e696e67a26469706673582212208b4348767a2b1dfbe276b3ee78502ff68a37439a533f1ec5e3158467905a034864736f6c63430008100033",
    "linkReferences": {
      "src/utils/RandomHelper.sol": {
        "RandomHelper": [
          {
            "start": 4270,
            "length": 20
          }
        ]
      }
    }
  },
  "methodIdentifiers": {
    "callVote()": "1ad7c199",
    "doAction(uint256,address,uint256)": "54e52485",
    "gameOutcome()": "053a2cfb",
    "gameState()": "d1f9c24d",
    "getImposterCount()": "dc5cda6b",
    "getPlayerCount()": "c2e52206",
    "getRealOnesCount()": "08275a60",
    "join()": "b688a363",
    "lastVoteCallTimestamp()": "c18f18b9",
    "leave()": "d66d9e19",
    "numAlivePlayers()": "9aeb5587",
    "numVotes()": "a3bef4d7",
    "players(address)": "e2eb41ff",
    "start(string)": "258e60b6",
    "tasks(uint256)": "8d977672",
    "tasksCompleted()": "37e0b491",
    "vote(address)": "6dd7d8ea",
    "voteRound()": "e3646b72",
    "voted(uint256,address)": "5277b4ae",
    "votes(uint256,address)": "d23254b4"
  },
  "id": 9
}